:100000000C940F010C9439010C9439010C943901B2
:100010000C9439010C9439010C9439010C94390178
:100020000C9439010C9439010C9439010C94390168
:100030000C9439010C9439010C9439010C94390158
:100040000C9439010C9439010C9439010C94390148
:100050000C9439010C9439010C9439010C94390138
:100060000C9439010C9439010C9439010C94390128
:100070000C9439010C9439010C9439010C94390118
:100080000C9439010C9439010C9439010C947208C8
:100090000C9439010C9439010C9439010C943901F8
:1000A0000C9439010C9439010C9439010C943901E8
:1000B0000C9439010C9439010C9439010C943901D8
:1000C0000C9439010C9439010C9439010C943901C8
:1000D0000C9439010C9439010C9439010C943901B8
:1000E0000C943901072C7AA5BA6CC590DA3B93655C
:1000F000FC8BBC53F810FD3C5692834DBD879D3A56
:10010000B63DCBC9BF5BBE73DA0FC93F6364696E8E
:100110006F7073757858006E616E00696E660000CE
:10012000407A10F35A00A0724E18090010A5D4E8C6
:100130000000E87648170000E40B54020000CA9A59
:100140003B000000E1F505000080969800000040AB
:10015000420F000000A086010000001027000000F0
:1001600000E803000000006400000000000A000036
:100170000000000100000000002C76D888DC674FEA
:100180000823DFC1DFAE59E1B1B796E5E3E453C61A
:100190003AE651997696E8E6C28426EB898C9B6212
:1001A000ED407C6FFCEFBC9C9F40F2BAA56FA5F4BC
:1001B00090055A2AF75C936B6CF9676DC11BFCE0E4
:1001C000E40D47FEF520E6B500D0ED902E03009437
:1001D0003577050080841E080000204E0A000000CC
:1001E000C80C333333330F986E12831141EF8D21D6
:1001F00014893BE65516CFFEE6DB18D1844B381B3D
:10020000F77C1D901DA4BBE424203284725E228101
:1002100000C9F124ECA1E53D2700540A6A0A112423
:100220001FBECFEFD1E2DEBFCDBF12E0A0E0B2E053
:10023000EAE5F0E300E00BBF02C007900D92A238A0
:10024000B107D9F72AE0A2E8B2E001C01D92A23EB0
:10025000B207E1F711E0CEE0D1E004C02197FE0142
:100260000E944A13CD30D107C9F70E9484090C942B
:1002700020180C9400009FB788E48093B800E9EB45
:10028000F0E080818C7F808388B1806388B985E4C9
:100290008093BC001092BA009FBF08951092BC00DA
:1002A00094EA9093BC009091BC0097FFFCCF909192
:1002B000B900987F983011F081E008958093BB00D9
:1002C00084E88093BC008091BC0087FFFCCF8091C4
:1002D000B900887F883111F0803471F780E008958B
:1002E0008093BB0084E88093BC008091BC0087FFB2
:1002F000FCCF9091B900987F81E0983209F480E0BA
:10030000089584EC8093BC008091BC0087FFFCCFF3
:100310008091BB00089584E88093BC008091BC006C
:1003200087FFFCCF8091BB000895CF92DF92EF92C0
:10033000FF921F93CF93DF9300D0CDB7DEB77A0142
:1003400069837A830E944E01182F69817A81811115
:100350000DC06B01EC0CFD1CCE14DF0449F0F6015E
:1003600081916F010E9470018823B1F311E003C0F5
:1003700084E98093BC00812F0F900F90DF91CF9183
:100380001F91FF90EF90DF90CF900895AF92BF92B2
:10039000CF92DF92FF920F931F93CF93DF936B0166
:1003A0008A0181600E944E01F82E811118C0560109
:1003B000E8012197C5018C199D098C179D0730F420
:1003C0000E948101F50181935F01F4CFCC0DDD1D09
:1003D0000E948B01888384E98093BC0002C0FF24C3
:1003E000F3948F2DDF91CF911F910F91FF90DF90AC
:1003F000CF90BF90AF900895CF92DF92EF92FF928F
:100400000F931F93CF93DF931F92CDB7DEB78A016F
:10041000790169830E944E016981882311F081E08E
:1004200015C0862F0E94700167010E0D1F1DC0169A
:10043000D10641F0F60181916F010E94700188237D
:10044000B1F3EDCF84E98093BC0080E00F90DF91A1
:10045000CF911F910F91FF90EF90DF90CF90089573
:10046000CF93DF931F92CDB7DEB749839E012F5FF5
:100470003F4F41E050E00E94FC010F90DF91CF918F
:100480000895AF92BF92CF92DF92FF920F931F9386
:10049000CF93DF931F92CDB7DEB7F82E8A016901A3
:1004A00069830E944E016981882319F0FF24F39427
:1004B0001FC0862F0E9470018F2D81600E944E0107
:1004C000F82E8111F3CF560101501109C5018C1985
:1004D0009D098017910730F40E948101F5018193F5
:1004E0005F01F4CFC00ED11E0E948B01F601808304
:1004F0008F2D0F90DF91CF911F910F91FF90DF9083
:10050000CF90BF90AF9008959A0141E050E00C94D5
:100510004102FF920F931F93CF93DF931F92CDB7AA
:10052000DEB7F42E8901AE014F5F5F4F0E94840257
:1005300061E070E0AB0101C0440FFA94EAF79981E1
:100540004923F801408394E99093BC000F90DF9118
:10055000CF911F910F91FF900895EF92FF920F930B
:100560001F93CF93DF931F92CDB7DEB7F42EE22E09
:10057000AE014F5F5F4F0E9484028823F1F04F2D40
:1005800050E04E1951094F5F5F4F21E030E002C04B
:10059000220F331FEA94E2F721503109042E01C0E3
:1005A000220F0A94EAF79981292330E002C0359599
:1005B00027954A95E2F7F801208394E99093BC00CF
:1005C0000F90DF91CF911F910F91FF90EF900895C1
:1005D000FF920F931F93CF93DF9300D0CDB7DEB779
:1005E000182F062FF42EAE014F5F5F4F2A830E9413
:1005F000840299812A81222341F041E050E001C028
:10060000440FFA94EAF7492B09C021E030E0A90130
:1006100001C0440FFA94EAF7409549234983602FBB
:10062000812F0E9430020F900F90DF91CF911F9188
:100630000F91FF900895DF92EF92FF920F931F9317
:10064000CF93DF931F92CDB7DEB7182FF62EE42E8F
:10065000D22EAE014F5F5F4F0E948402882321F1AA
:10066000EE2DF0E0ED19F109319621E030E002C005
:10067000220F331FDA94E2F7215031090E2E01C008
:10068000220F0A94EAF7802F01C0880FEA95EAF753
:10069000422F4095998149232823422B49836F2D6E
:1006A000812F0E94300201C080E00F90DF91CF9136
:1006B0001F910F91FF90EF90DF90089584E9809350
:1006C000BC0008950C943B010895CF93DF93EC0197
:1006D000AC0165E780ED0E94840281E0988191374A
:1006E00009F080E0DF91CF910895CF92DF92EF92F1
:1006F000FF920F931F93CF93DF938C0141E86BE63A
:1007000080ED0E9430024FEF63E280ED0E943002E4
:1007100040E06BE180ED0E94300240E06CE180ED52
:100720000E94300240E866E380ED0E94300242E021
:1007300067E380ED0E943002E801A0960A5D1F4F3A
:1007400088E090E00E9473136C018993999388E08C
:1007500090E00E9473137C019F8B8E8B88E090E069
:100760000E9473139FA78EA7F6011782F7011782C5
:10077000FC011782C017D10719F7DF91CF911F91A4
:100780000F91FF90EF90DF90CF9008952F923F92BE
:100790004F925F926F927F928F929F92AF92BF9291
:1007A000CF92DF92EF92FF920F931F93CF93DF933D
:1007B000EC019C014EE050E06BE380ED0E944102B1
:1007C000888190E0982F88272981822B9F878E87A8
:1007D0008A8190E0982F88272B81822B998B888B98
:1007E0008C8190E0982F88272D81822B9B8B8A8B80
:1007F000888590E0982F88272985822B9FA38EA338
:100800008A8590E0982F88272B85822B99A788A727
:100810008C8590E0982F88272D85822B9BA78AA70F
:10082000AE0160E08CE00E9484028881883419F572
:100830009E0146E050E063E08CE00E944102898125
:1008400090E0982F88272881822B9FAF8EAFFE01E2
:10085000E05CFF4F8B8190E0982F88272A81822BC4
:100860009183808332968D8190E0982F88272E8106
:10087000822B918380837E016E01212C312C412CAF
:10088000512C84E3682E83E4782EF6016685778503
:10089000072E000C880B990B0E94AB0D20E030E076
:1008A00040E858E30E94A70E4B015C0120E030E0D5
:1008B00040E85FEB0E94A20E181604F520E030E03D
:1008C00040E85FE3C501B4010E94FC0C87FF16C03D
:1008D000C501B4010E947E0C20E030E044E353E403
:1008E0000E94A70E2BED3FE049E450E40E94010D69
:1008F000F701648B758B868B978B1FC06A897B8908
:10090000072E000C880B990B0E94AB0D20E030E005
:1009100040E858E30E94A70E20E030E0A9010E94C1
:10092000FC0CF70187FF05C0448A558A668A778ADE
:1009300004C0148A158A168A178AF60100A111A12B
:10094000F701248935894689578960E070E084E39E
:1009500093E40E948F0C23E047E00E945313F601BA
:1009600000AD11ADF70164A575A586A597A523E097
:1009700047E00E945313F601E05BFF4F00811181B5
:10098000F60166AD77AD072E000C880B990B0E941F
:10099000AB0D23E047E00E945313FFEF2F1A3F0AED
:1009A00082E0C80ED11CE4E0EE0EF11CF3E02F163D
:1009B000310409F06ACFDF91CF911F910F91FF9021
:1009C000EF90DF90CF90BF90AF909F908F907F90EF
:1009D0006F905F904F903F902F900895DC01E0E87A
:1009E000F0E090819268908390819E7F9083E1E80F
:1009F000F0E090819B61908387E893E1909387007A
:100A000080938600259A86E990E0909389008093F0
:100A100088008D919C91089525982D9AE0E8F0E04A
:100A200080811082E1E8F0E08081108210928700DE
:100A3000109286000895259A089526E930E03093B3
:100A40002D0120932C014FEF51EE64E041505040B6
:100A50006040E1F700C00000FC01318320832F5F7C
:100A60003F4F2835F2E03F0751F70895CF92DF92CC
:100A7000EF92FF920F931F93CF93DF938C01611539
:100A80007105C1F0643B7105E1F0072E000C880B85
:100A9000990B0E94AB0D20E33BEB4BE150E40E942D
:100AA000A70E20E030E046E153E40E94900C6B0179
:100AB0007C010DC0C12CD12C96E1E92E93E4F92ED6
:100AC00006C0C12CD12C81E1E82E84E4F82EF80177
:100AD000C081D181BE010D2E000C880B990B0E94A4
:100AE000AB0D9B01AC01C701B6010E94FC0C87FF56
:100AF00019C0C701B6010E94730D6C177D0794F4ED
:100B0000D0938900C0938800FFEF20E782E0F15086
:100B100020408040E1F700C00000F801D183C0838D
:100B20002197E7CFF80160817181072E000C880BB7
:100B3000990B0E94AB0D9B01AC01C701B6010E944D
:100B4000A20E181664F0F80180819181DF91CF9197
:100B50001F910F91FF90EF90DF90CF900895C70104
:100B6000B6010E94730DC617D7076CF7D0938900A2
:100B7000C0938800FFEF20E782E0F15020408040E2
:100B8000E1F700C00000F801D183C0832196E7CFD0
:100B900008950895E0EAF0E080818C7F8083E1EAA7
:100BA000F0E08081827E80838081826080831092E9
:100BB000A5001092A4003F9A0E9847980895479A6E
:100BC00080E58A95F1F7479808950F931F93CF9387
:100BD000DF93EC01069BFECF1092A5001092A400BB
:100BE0000699FECF6091A4007091A5007B836A8373
:100BF00080E090E06C837D838E839F830E94A90DAB
:100C000020E030E048EE52E40E94010D68877987C9
:100C10008A879B878E01045F1F4F23E04BEF0E9462
:100C20005313DF91CF911F910F910895EF920F937E
:100C3000CF93DF9300D01F92CDB7DEB7FC0129839D
:100C40000A83EB8260837183538342838981848327
:100C50009A8195839B819683DB019E91892B8C934E
:100C6000A281B3819E918581892B8C93A1E0B1E013
:100C70008C9180628C93A2E0B1E08C918F7D8C93FB
:100C8000A281B3819C918581809589238C930F905B
:100C90000F900F90DF91CF910F91EF900895E1E0C9
:100CA000F1E0808180628083E2E0F1E080818F7DED
:100CB00080830895E1E0F1E080818F7D8083E2E030
:100CC000F1E080818F7D80830895DC01ED91FC91BE
:100CD000119714968C919081662311F0892B02C094
:100CE0008095892380830895CF93DF93EC010E9440
:100CF0006506EA81FB8190818D81892B80838FE15C
:100D000093E00197F1F700C00000EA81FB81908138
:100D10008D818095892380838FE193E00197F1F79E
:100D200000C00000DF91CF910895CF93DF93EC01D5
:100D30000E946506EA81FB8190818D81892B8083E9
:100D40008FE193E00197F1F700C00000EA81FB8199
:100D500090818D818095892380838FE193E0019735
:100D6000F1F700C00000DF91CF9108950F931F931A
:100D7000CF93DF93EC0109EC10E061E0CE010E941B
:100D8000740661E0CE010E94950601501109A9F791
:100D90002FEF87EA91E6215080409040E1F700C0B4
:100DA000000009EC10E060E0CE010E94740660E0F3
:100DB000CE010E94950601501109A9F72FEF87EA8D
:100DC00091E6215080409040E1F700C00000DF91A3
:100DD000CF911F910F9108950895089584B1857F53
:100DE00084B985B1857F85B9EAE0F1E080818870BA
:100DF0008083EBE0F1E08081857F80830895FC01B2
:100E0000A9E0B1E08C918695817080838C9183FB01
:100E1000882780F9818383B186958170828383B12D
:100E200083FB882780F9838308959091C80095FFFC
:100E3000FCCF8093CE0008958091C80087FFFCCF3F
:100E40008091CE000895089508951092CD0088E015
:100E50008093CC00E9ECF0E0808188618083EAEC4B
:100E6000F0E080818660808308958091C80087FDCE
:100E700003C08091CE00F9CF0895CF93DF93EB01AB
:100E80002296FE0132978081882331F0FE0131974E
:100E900080810E941507F4CF8DE00E9415078AE03B
:100EA0000E94150781E090E0DF91CF9108950F93A4
:100EB0001F93CF93DF93C3E8D2E00FE712E00E94C5
:100EC0001C078993FE0132979081933211F481328D
:100ED000A9F0F80121918F01253461F42081223598
:100EE00049F4FE0133972081223521F49F3411F417
:100EF000823521F0F6E0CB36DF0709F783E892E090
:100F0000DF91CF911F910F9108959B0121503109DD
:100F100040E050E060E472E48FE090E00E9428132B
:100F2000832F99278093C5002093C400E1ECF0E063
:100F3000808188618083E2ECF0E08081866080833C
:100F400008959091C00095FFFCCF8093C60008954E
:100F5000CF93DF93EB018991882319F00E94A107B9
:100F6000FACFDF91CF9108958091C00087FFFCCF29
:100F70008091C6000895AF92BF92DF92EF92FF92E8
:100F80000F931F93CF93DF931F92CDB7DEB77C01F2
:100F90008C010E5F1F4FA12CB12CD02E912F998365
:100FA0000E94B40799818D3059F0F3E6AF16B10471
:100FB00039F02FEFA21AB20AF80181938F01EFCF17
:100FC000F501EE0DFF1D12828D2D0F90DF91CF9157
:100FD0001F910F91FF90EF90DF90BF90AF90089519
:100FE0008091C00087FF03C08091C600F9CF0895AB
:100FF000CF92DF92EF92FF92CF93DF938091910097
:101000008560809391006091260270912702072EDF
:10101000000C880B990B0E94AB0D6B017C012FE338
:1010200035E346E850E40E94010D0E947A0DEB0181
:101030007093C80A6093C70A80E090E00E94A90DEF
:101040002FE335E346E850E40E94A70E9B01AC0174
:10105000C701B6010E948F0C20E034E244E75BE454
:101060000E94A70E20E030E040E85AE30E94A70E5D
:101070009B01AC0160E07FEF8FE797E40E948F0C4B
:10108000CD2B21F020E030E0A90104C020E030E0C9
:1010900040E85FE30E94A70E0E947A0D70939500CE
:1010A00060939400809171008160809371007894C6
:1010B0008091C70A9091C80A01979093C80A8093BB
:1010C000C70ADF91CF91FF90EF90DF90CF90089506
:1010D000E1E2F1E080818660808310922501109228
:1010E000240108951F920F920FB60F9211240BB690
:1010F0000F92CF92DF92EF92FF920F931F932F9355
:101100003F934F935F936F937F938F939F93AF938F
:10111000BF93EF93FF936091260270912702072EF1
:10112000000C880B990B0E94AB0D6B017C012FE327
:1011300035E346E850E40E94010D0E947A0D80E0FC
:1011400090E00E94A90D2FE335E346E850E40E94A9
:10115000A70E9B01AC01C701B6010E948F0C20E0D5
:1011600034E244E75BE40E94A70E20E030E040E870
:101170005AE30E94A70E9B01AC0160E07FEF8FE76E
:1011800097E40E948F0C2091C70A3091C80A232B44
:1011900021F020E030E0A90104C020E030E040E888
:1011A0005FE30E94A70E0E947A0D709395006093F2
:1011B00094008091C70A9091C80A97FF83C08091DC
:1011C00024019091250160912602709127020E94CE
:1011D000141380E090E00E94A90D6093C30A7093FD
:1011E000C40A8093C50A9093C60A109225011092F2
:1011F00024010DEB1AE023E04BEF0E945313809182
:10120000BD0A809303028091BE0A809304028091FC
:10121000BF0A809305028091C00A809306028091E4
:10122000C10A809307028DE796E00E94C603E09111
:10123000A106F091A206808180930A0281818093A9
:101240000B02828180930C02838180930D02848142
:1012500080930E028BE696E00E94DF058BE696E017
:101260000E94E505809177068093180280917806A8
:10127000809319028091790680931A0280917A06F0
:1012800080931B0280917B0680931C0260E072E0D9
:1012900083ED96E00E94A8076091260270912702D4
:1012A000072E000C880B990B0E94AB0D2FE335E342
:1012B00046E850E40E94010D0E947A0D7093C80A1E
:1012C0006093C70A8091C70A9091C80A01979093CA
:1012D000C80A8093C70AFF91EF91BF91AF919F9188
:1012E0008F917F916F915F914F913F912F911F91BE
:1012F0000F91FF90EF90DF90CF900F900BBE0F906B
:101300000FBE0F901F901895EF920F93CF93DF931E
:10131000CDB7DEB7A2970FB6F894DEBF0FBECDBF34
:10132000CE014D960E94EC0686E990E09AA389A32F
:101330008BE696E00E94CA0560E071EE83ED96E0D0
:101340000E948507CE014D960E94EE068DE796E03D
:101350000E9475030E94F8070E946808EE24E39437
:1013600000E128E04EE250E06EE270E0CE014696E9
:101370000E94160682E0E82E00E228E04EE250E0ED
:1013800062E071E0CE010F960E94160694E0E92E0D
:1013900020E144E350E062E071E0CE0108960E9453
:1013A000160628E0E22E00E420E845E250E065E27F
:1013B00070E0CE0101960E941606CE0181960E9431
:1013C000EE04CE0146960E945A068DE796E00E94F2
:1013D0006503882309F451C06EE272E083ED96E064
:1013E0000E94A8078BE696E00E94DF058BE696E058
:1013F0000E94E50561E472E083ED96E00E94A80793
:1014000067E776E083ED96E00E94A8076FE372E05D
:1014100083ED96E00E94A8078DE796E00E94C60340
:101420006AE572E083ED96E00E94A8076091A1064C
:101430007091A20683ED96E00E94A8076FE372E028
:1014400083ED96E00E94A8072091990630919A06B4
:1014500040919B0650919C0660E070E084E393E429
:101460000E948F0C0E94730D7093CE0A6093CD0A78
:10147000CE0181960E943605FFCF6CE672E083EDC7
:1014800096E00E94A807CE014D960E94ED068FEFD0
:101490009FEFA2960FB6F894DEBF0FBECDBFDF91CF
:1014A000CF910F91EF90089588EE93E09093D4063A
:1014B0008093D306E5EDF6E0DF019C011D922150FB
:1014C0003040E1F78DE796E00E9462038BE696E0FC
:1014D0000C94C8058BE696E00E94C9058DE796E05E
:1014E0000C94640320FD09C0FC0123FD05C022FF0C
:1014F00002C07383628351834083089544FD10C00A
:1015000046FD10C0DB01FC01AA0FBB1FEE1FFF1F31
:101510001094D1F76A0F7B1F8E1F9F1F31E003C00D
:1015200033E001C034E0660F771F881F991F3150E8
:10153000D1F7620F711D811D911D08950F931F93A7
:10154000CF93DF938C01C8010E94A215EC0197FD97
:1015500008C00E947815892BB1F7B801CE010E940E
:101560001816CE01DF91CF911F910F9108958F92A0
:101570009F92AF92BF92CF92DF92EF92FF920F9322
:101580001F93CF93DF931F92CDB7DEB78C01C62E8A
:101590007A0129830E94A215AC01552729814B327B
:1015A000510521F04D32510569F42068CA94C110EB
:1015B00002C080E076C0C80129830E94A21529815B
:1015C00097FDF7CF322F3D7FD32E322F307349F561
:1015D000803339F5BB24BA94BC0C09F44EC0C80161
:1015E00029830E94A215298197FD47C0382F3F7D8E
:1015F000383569F48D2D8264D82ECA94CA94CC20D3
:10160000E1F1C8010E94A21597FF0BC036C026FF6A
:1016100004C02D2D2260D22E03C03D2D3261D32E69
:10162000CB2C812C912C540120ED280F283080F0F8
:10163000D4FE04C0B8010E9418161CC02A3040F025
:10164000D6FEF8CF2F7D3FEE320F363098F7275079
:101650004D2DC501B4010E947E0A4B015C018D2D08
:101660008260D82ECA94CC2059F0C8010E94A215DD
:1016700097FFDACFD1FC04C09CCF812C912C540170
:10168000D7FE08C0B094A09490948094811C911CC3
:10169000A11CB11C2D2DB501A401C7010E94720A25
:1016A00081E00F90DF91CF911F910F91FF90EF900C
:1016B000DF90CF90BF90AF909F908F9008954F9202
:1016C0005F926F927F928F929F92AF92BF92CF92D2
:1016D000DF92EF92FF920F931F93CF93DF931F92AE
:1016E000CDB7DEB77C012B015A01FC0117821682AF
:1016F000812CF7017380F20173FC859173FE819157
:10170000382F2F01882309F4E2C090E039830E942A
:1017100078153981892B21F0C7010E949E0AE9CFF3
:10172000353241F4F20173FC359173FE31912F0192
:10173000353269F4C70139830E94A215398197FDBA
:10174000C4C03817B1F2B7010E941816C0C03A32AF
:1017500039F473FC359173FE31912F0111E001C012
:1017600010E0620160E020ED230F2A3070F4126077
:1017700070E080E090E040E20E947E0AF60173FC97
:10178000359173FE31916F01EECF962E032F260116
:1017900011FF03C0611103C09AC099249A9438368E
:1017A00019F03C3651F010C0F60173FC059173FE40
:1017B00001912F01083641F418601460F20173FCA6
:1017C000059173FE01912F01002309F480C0602F61
:1017D00070E08CE091E00E948115892B09F477C0BC
:1017E00010FD07C0F501C080D180C50102965C01E3
:1017F00002C0C12CD12C0E3651F4F701468157811D
:1018000060E070E0212FC6010E94720A72CF033699
:10181000A9F411FD02C099249394C7010E94A21556
:1018200097FD53C0C114D10429F0F6018083C6018D
:1018300001966C019A949110F0CF43C0C7010E94A9
:101840009E0A97FD42C00F3661F128F4043639F143
:10185000093651F128C0033771F0053701F123C073
:10186000C114D10429F0F6016082C60101966C0111
:101870009A94992071F0C7010E94A2153C0197FD2E
:1018800008C00E947815892B59F3B701C3010E9443
:101890001816C114D104A9F0F601108212C010620A
:1018A00003C0106101C01064212FA601692DC7017A
:1018B0000E94B70A811105C0F7018381807329F462
:1018C00006C010FD16CF839414CF882019F0882D00
:1018D00090E002C08FEF9FEF0F90DF91CF911F91AB
:1018E0000F91FF90EF90DF90CF90BF90AF909F90BF
:1018F0008F907F906F905F904F9008959F939F7708
:101900000E94E60D0F90002042F49058A2EA2AEDC2
:101910003FE049E450E40E94A70C0C94680E505834
:10192000BB27AA270E94A70C0C94680E0E945A0E8F
:1019300038F00E94610E20F039F49F3F19F426F42C
:101940000C94300E0EF4E095E7FB0C942A0EE92F70
:101950000E94790E58F3BA17620773078407950738
:1019600020F079F4A6F50C949B0E0EF4E0950B2E66
:10197000BA2FA02D0B01B90190010C01CA01A001E1
:101980001124FF27591B99F0593F50F4503E68F13C
:101990001A16F040A22F232F342F4427585FF3CF7D
:1019A000469537952795A795F0405395C9F77EF44E
:1019B0001F16BA0B620B730B840BBAF09150A1F097
:1019C000FF0FBB1F661F771F881FC2F70EC0BA0F1D
:1019D000621F731F841F48F4879577956795B795A5
:1019E000F7959E3F08F0B0CF9395880F08F09927A0
:1019F000EE0F9795879508950E94060E08F481E0F2
:101A000008950E94150D0C94680E0E94610E58F006
:101A10000E945A0E40F029F45F3F29F00C942A0EE0
:101A200051110C949C0E0C94300E0E94790E68F3A8
:101A30009923B1F3552391F3951B550BBB27AA2787
:101A400062177307840738F09F5F5F4F220F331FC1
:101A5000441FAA1FA9F335D00E2E3AF0E0E832D089
:101A600091505040E695001CCAF72BD0FE2F29D08C
:101A7000660F771F881FBB1F261737074807AB075E
:101A8000B0E809F0BB0B802DBF01FF2793585F4FD3
:101A90003AF09E3F510578F00C942A0E0C949C0E5F
:101AA0005F3FE4F3983ED4F3869577956795B795B5
:101AB000F7959F5FC9F7880F911D9695879597F9C0
:101AC0000895E1E0660F771F881FBB1F6217730739
:101AD0008407BA0720F0621B730B840BBA0BEE1F4E
:101AE00088F7E09508950E947A0D6894B1110C94DE
:101AF0009C0E08950E94810E88F09F5798F0B92F90
:101B00009927B751B0F0E1F0660F771F881F991F32
:101B10001AF0BA95C9F714C0B13091F00E949B0E2B
:101B2000B1E008950C949B0E672F782F8827B85F3B
:101B300039F0B93FCCF3869577956795B395D9F78A
:101B40003EF490958095709561957F4F8F4F9F4F94
:101B50000895E89409C097FB3EF4909580957095A0
:101B600061957F4F8F4F9F4F9923A9F0F92F96E9E9
:101B7000BB279395F695879577956795B795F1115E
:101B8000F8CFFAF4BB0F11F460FF1BC06F5F7F4FFB
:101B90008F4F9F4F16C0882311F096E911C077230D
:101BA00021F09EE8872F762F05C0662371F096E816
:101BB000862F70E060E02AF09A95660F771F881FE5
:101BC000DAF7880F9695879597F90895DF93CF9365
:101BD0001F930F938B01EC01E4EEF0E00E94330EB3
:101BE0000E94680E9801AE018B01EC0160E070E08C
:101BF00080E89FE30E948F0C0E941A0F9801AE01AB
:101C00000F911F91CF91DF910C94BA0E990F00089C
:101C1000550FAA0BE0E8FEEF16161706E807F907BE
:101C2000C0F012161306E407F50798F0621B730B59
:101C3000840B950B39F40A2661F0232B242B252BDA
:101C400021F408950A2609F4A140A6958FEF811D7D
:101C5000811D089597F99F6780E870E060E008951E
:101C60009FEF80EC0895DF93CF931F930F93FF9224
:101C7000EF92DF927B018C01689406C0DA2EEF01AF
:101C80000E94BA0EFE01E894A591259135914591E7
:101C90005591A6F3EF010E94A70CFE019701A80140
:101CA000DA9469F7DF90EF90FF900F911F91CF9139
:101CB000DF91089500240A941616170618060906DF
:101CC000089500240A9412161306140605060895B2
:101CD000092E0394000C11F4882352F0BB0F40F43A
:101CE000BF2B11F460FF04C06F5F7F4F8F4F9F4F7A
:101CF000089557FD9058440F551F59F05F3F71F0FC
:101D00004795880F97FB991F61F09F3F79F0879562
:101D10000895121613061406551FF2CF4695F1DFEB
:101D200008C0161617061806991FF1CF869571057B
:101D3000610508940895E894BB2766277727CB01AF
:101D400097F908950E94060E08F48FEF08950E94F7
:101D5000BA0E0C94680E0E945A0E38F00E94610E62
:101D600020F0952311F00C942A0E0C94300E1124BF
:101D70000C949C0E0E94790E70F3959FC1F3950F01
:101D800050E0551F629FF001729FBB27F00DB11DFF
:101D9000639FAA27F00DB11DAA1F649F6627B00D8F
:101DA000A11D661F829F2227B00DA11D621F739F78
:101DB000B00DA11D621F839FA00D611D221F749F86
:101DC0003327A00D611D231F849F600D211D822FCD
:101DD000762F6A2F11249F5750409AF0F1F08823F4
:101DE0004AF0EE0FFF1FBB1F661F771F881F915021
:101DF0005040A9F79E3F510580F00C942A0E0C9498
:101E00009C0E5F3FE4F3983ED4F3869577956795F3
:101E1000B795F795E7959F5FC1F7FE2B880F911D4A
:101E20009695879597F9089519F416F40C94300E49
:101E30000C945A0F0E94810EB8F39923C9F3B6F39C
:101E40009F57550B87FF0E94680F0024A0E640EAC9
:101E5000900180585695979528F4805C660F771FFF
:101E6000881F20F026173707480730F4621B730BD2
:101E7000840B202931294A2BA695179407942025F5
:101E800031254A2758F7660F771F881F20F026173D
:101E90003707480730F4620B730B840B200D311D9C
:101EA000411DA09581F7B901842F9158880F96950F
:101EB000879508959F3F31F0915020F4879577954D
:101EC0006795B795880F911D9695879597F9089511
:101ED00091505040660F771F881FD2F708952F92B8
:101EE0003F924F925F926F927F928F929F92AF92AA
:101EF000BF92CF92DF92EF92FF920F931F93CF93F7
:101F0000DF93CDB7DEB763970FB6F894DEBF0FBE91
:101F1000CDBF6C014B012A01FC011782168283811F
:101F200081FF43C3AE014F5F5F4F3A01F6019381DA
:101F3000F40193FD859193FF81914F01882309F46A
:101F400030C3853239F493FD859193FF81914F0120
:101F5000853239F4B60190E00E94E0155201250166
:101F6000E5CF10E0F12C20E02032A0F48B3269F0B4
:101F700030F4803259F0833269F420612CC08D3204
:101F800039F0803339F4216026C02260246023C0F8
:101F9000286021C027FD27C030ED380F3A3078F493
:101FA00026FF06C0FAE01F9F300D1124132F13C027
:101FB0004AE0F49E300D1124F32E20620CC08E32C4
:101FC00021F426FDEEC2206406C08C3611F4206890
:101FD00002C0883641F4F40193FD859193FF81910D
:101FE0004F018111C1CF9BEB980F933018F4206102
:101FF000805E06C09BE9980F933008F071C12F7E78
:1020000026FF16E02F73322E853619F42064322E07
:1020100008C0863621F4F22FF0683F2E02C011115D
:10202000115037FE07C01C3350F4EE24E394E10E48
:1020300027E00BC0183038F027E017E005C027E094
:102040004CE3E42E02C0212FE12C520144E0A40E07
:10205000B11CF20160817181828193810E2DA301F7
:102060000E94A0142C01098100FF02C003FF07C0D9
:1020700031FC08C032FE09C030E2232E07C02DE239
:10208000222E04C09BE2292E01C0212C802F8C70AF
:1020900019F0211068C2A8C237FE0FC0E40C04FF7B
:1020A00004C08A81813309F4EA941E1474F5F8E0BF
:1020B000FE1578F588E0E82E2CC036FC2AC0812F6A
:1020C00090E0841595059CF02CEF42162FEF5206F8
:1020D00074F0432D4068342E0AC0E2E0F0E0EC0FCB
:1020E000FD1FE10FF11D8081803319F41150111192
:1020F000F4CF37FE0EC0EE24E394E10E812F90E082
:10210000481659062CF4141904C0EE24E39401C0B7
:1021100010E037FE06C01414150434F4C201019611
:1021200005C085E090E002C081E090E021100196BA
:10213000112331F0212F30E02F5F3F4F820F931F8B
:102140002F2D30E08217930714F4F81A01C0F12CF8
:10215000832D897049F4FF2039F0B60180E290E0C8
:102160000E94E015FA94F7CF222029F0B601822DC3
:1021700090E00E94E01533FC09C0FF2039F0B60161
:1021800080E390E00E94E015FA94F7CF37FE5AC042
:10219000942D852D57FE02C090E080E0292E382E28
:1021A00020E030E0A2014E1951095D874C87A20161
:1021B000421953095F874E87612F70E044275527E6
:1021C000461B570B598B488B5FEF2516350649F494
:1021D000B6018EE290E02A8B3B8B0E94E0153B8992
:1021E0002A89421453046CF04C855D8542155305D1
:1021F00044F4EE85FF85E20FF31FE60DF71D8181A4
:1022000001C080E351E0251A31082F5F3F4F488914
:102210005989241635064CF0B60190E02A8B3B8B89
:102220000E94E0152A893B89CFCF2414350439F464
:102230009A81963318F4953311F404FF81E3B601C3
:1022400090E04BC08A81813309F00F7EB60190E0A7
:102250000E94E015111105C034FC18C085E690E01D
:1022600017C0B6018EE290E00E94E01582E0EE24F5
:10227000E394E80EF301E80FF11D8081B60190E0D0
:102280000E94E01511508E2D91F7E6CF85E490E085
:10229000B6010E94E01557FC05C04114510439F401
:1022A00004FF05C05194419451088DE201C08BE2B6
:1022B000B60190E00E94E01580E39AE049165104CF
:1022C0002CF08F5F5AE0451A5108F7CFB60190E025
:1022D0000E94E015B601C201C0960E94E01557C1E8
:1022E000833631F0833779F0833509F058C021C047
:1022F0005201E2E0AE0EB11CF2018081898301E05F
:1023000010E0230114C05201F2E0AF0EB11CF20143
:102310004080518026FF03C0612F70E002C06FEF44
:102320007FEFC2012A8B0E9497158C012A892F7793
:1023300015C05201F2E0AF0EB11CF2014080518095
:1023400026FF03C0612F70E002C06FEF7FEFC20174
:102350002A8B0E948C158C012A892068322E23FD3D
:102360001AC08F2D90E008171907A8F4B60180E273
:1023700090E00E94E015FA94F4CFF20137FC8591C9
:1023800037FE81912F01B60190E00E94E015F11017
:10239000FA94015011090115110579F7F8C0843636
:1023A00011F0893659F5520127FF09C0F4E0AF0E4C
:1023B000B11CF20160817181828193810AC0F2E0D7
:1023C000AF0EB11CF20160817181072E000C880BE9
:1023D000990B2F76322E97FF09C0909580957095B6
:1023E00061957F4F8F4F9F4F2068322E2AE030E05B
:1023F000A3010E943116E82EE6183FC0022F853750
:1024000021F40F7E2AE030E01DC0097F8F3691F065
:1024100018F4883559F0C5C0803719F0883711F0A5
:10242000C0C0006104FF09C0046007C024FF08C0E9
:10243000066006C028E030E005C020E130E002C0C0
:1024400020E132E0520107FF09C0F4E0AF0EB11CF9
:10245000F201608171818281938108C0F2E0AF0E48
:10246000B11CF2016081718180E090E0A3010E94C3
:102470003116E82EE6180F77302E36FE0BC0332DBE
:102480003E7FE11650F434FE0AC032FC08C0332D02
:102490003E7E05C00E2D332D03C00E2D01C0012F31
:1024A00034FF0CC0FE01EE0DF11D8081803311F46C
:1024B000397E08C032FF05C00E5F04C0832F8678C6
:1024C00009F00F5F33FD13C030FF06C01E2D0F153E
:1024D00018F41F0D101B0F2D0F1568F4B60180E2C4
:1024E00090E03B8B0E94E0150F5F3B89F5CF0F1505
:1024F00010F4F01A01C0F12C34FF12C0B60180E3D1
:1025000090E03B8B0E94E0153B8932FF17C031FD04
:1025100003C088E790E002C088E590E0B6010CC0F7
:10252000832F867859F031FF02C08BE201C080E230
:1025300037FD8DE2B60190E00E94E015E11638F417
:10254000B60180E390E00E94E0151150F7CFEA94C5
:10255000F301EE0DF11D8081B60190E00E94E015BF
:10256000E110F5CF14C0F4E0FF1558F584E0F81A37
:1025700033FE1EC0211026C003FF2AC007E111E070
:10258000F32DF0713F2EF8018491811124C0FF20BA
:1025900009F4E5CCB60180E290E00E94E015FA94DF
:1025A000F6CFF6018681978126C08FEF9FEF23C07B
:1025B000B60180E290E00E94E015FA94F110F8CFA5
:1025C000D9CFF12CB601822D90E00E94E015D4CF36
:1025D0000BE111E0D5CF31108052B60190E00E949E
:1025E000E0150F5F1F4FCFCF23E02F1510F483E0CE
:1025F000BECFF12CC1CF63960FB6F894DEBF0FBEED
:10260000CDBFDF91CF911F910F91FF90EF90DF90A1
:10261000CF90BF90AF909F908F907F906F905F9082
:102620004F903F902F900895AA1BBB1B51E107C00C
:10263000AA1FBB1FA617B70710F0A61BB70B881F52
:10264000991F5A95A9F780959095BC01CD010895E1
:10265000A1E21A2EAA1BBB1BFD010DC0AA1FBB1FA6
:10266000EE1FFF1FA217B307E407F50720F0A21B18
:10267000B30BE40BF50B661F771F881F991F1A9485
:1026800069F760957095809590959B01AC01BD01AF
:10269000CF010895EE0FFF1F0024001C0BBE079012
:1026A000F691E02D0994EF920F931F93CF93DF9350
:1026B000E80147FD02C034E001C034E1E42F440FDB
:1026C000FF0BF7FF03C0F195E195F109E32E022F0F
:1026D0002E2FAE010E948F16CE01DF91CF911F9158
:1026E0000F91EF900895CF93DF938230910510F40E
:1026F00082E090E0E091E00AF091E10A20E030E031
:10270000C0E0D0E0309711F140815181481759075E
:10271000C0F04817590761F482819381209719F01E
:102720009B838A832BC09093E10A8093E00A26C0A2
:102730002115310519F04217530718F49A01BE010B
:10274000DF01EF010280F381E02DDCCF211531059F
:1027500009F1281B390B2430310590F412968D9124
:102760009C9113976115710521F0FB01938382837E
:1027700004C09093E10A8093E00AFD01329644C0C0
:10278000FD01E20FF31F81939193225031092D93A4
:102790003C933AC02091DE0A3091DF0A232B41F4AA
:1027A00020912A0230912B023093DF0A2093DE0A17
:1027B00020912802309129022115310541F42DB7CD
:1027C0003EB740912C0250912D02241B350BE09115
:1027D000DE0AF091DF0AE217F307A0F42E1B3F0B8D
:1027E0002817390778F0AC014E5F5F4F2417350783
:1027F00048F04E0F5F1F5093DF0A4093DE0A81932B
:10280000919302C0E0E0F0E0CF01DF91CF91089515
:102810000F931F93CF93DF93009709F48CC0FC01B3
:102820003297138212820091E00A1091E10A011599
:10283000110581F420813181820F931F2091DE0ADE
:102840003091DF0A2817390779F5F093DF0AE09312
:10285000DE0A71C0D80140E050E0AE17BF0750F467
:1028600012962D913C911397AD012115310509F177
:10287000D901F3CF9D01DA01338322836081718115
:10288000860F971F8217930769F4EC01288139811D
:10289000260F371F2E5F3F4F318320838A819B8114
:1028A00093838283452B29F4F093E10AE093E00AB5
:1028B00042C01396FC93EE931297ED014991599102
:1028C0009E01240F351FE217F30771F48081918177
:1028D000840F951F029611969C938E93828193810B
:1028E00013969C938E931297E0E0F0E0D801129635
:1028F0008D919C911397009719F0F8018C01F6CFF8
:102900008D919C9198012E5F3F4F820F931F2091D4
:10291000DE0A3091DF0A2817390769F4309729F465
:102920001092E10A1092E00A02C013821282109300
:10293000DF0A0093DE0ADF91CF911F910F91089576
:10294000283008F027E03327DA01990F311D87FD81
:10295000916000966105710539F432602E5F3D93F8
:1029600030E32A95E1F708959F3F30F080387105F4
:10297000610509F03C5F3C5F3D93913008F0806851
:10298000911DDF93CF931F930F93FF92EF92192F17
:10299000987F9695E92F96959695E90FFF27E7582A
:1029A000FE4F99273327EE24FF24A701E701059066
:1029B0000894079428F4360FE71EF81E491F511D8E
:1029C000660F771F881F991F0694A1F7059007943B
:1029D00028F4E70EF81E491F561FC11D770F881FE8
:1029E000991F661F0694A1F70590079428F4F80E26
:1029F000491F561FC71FD11D880F991F661F771FBC
:102A00000694A1F70590079420F4490F561FC71F9D
:102A1000D81F990F661F771F881F0694A9F7849106
:102A20001095177041F0D695C79557954795F7942F
:102A3000E7941A95C1F7EFE1F1E0689415901591CC
:102A400035916591959105907FE27395E118F10AB2
:102A5000430B560BC90BD009C0F7E10CF11E431F05
:102A6000561FC91FD01D7EF4703311F48A95E6CF2E
:102A7000E894015030F0080F0AF40027021708F418
:102A8000202F2395022F7A3328F079E37D932A951E
:102A9000E9F710C07D932A9589F606949795679576
:102AA000379517951794E118F10A430B560BC90B8C
:102AB000D00998F023957E9173957A3308F070E3EE
:102AC0007C932013B8F77E9170617D9330F08395ED
:102AD00071E37D9370E32A95E1F71124EF90FF9065
:102AE0000F911F91CF91DF91992787FD90950895C0
:102AF00091110C941D18803219F089508550C8F737
:102B00000895FC010590061621F00020D9F7C001B8
:102B100008953197CF010895FC01059061507040F0
:102B20000110D8F7809590958E0F9F1F0895FC0196
:102B30006150704001900110D8F7809590958E0FEC
:102B40009F1F0895CF93DF93EC012B8120FF33C0AB
:102B500026FF0AC02F7B2B838E819F8101969F8346
:102B60008E838A8190E029C022FF0FC0E881F9811D
:102B70008081082E000C990B009719F420622B839A
:102B80001AC03196F983E8830EC0EA85FB85099562
:102B900097FF09C02B81019611F080E201C080E10E
:102BA000822B8B8308C02E813F812F5F3F4F3F8355
:102BB0002E83992702C08FEF9FEFDF91CF91089569
:102BC0000F931F93CF93DF93FB01238121FD03C05C
:102BD0008FEF9FEF28C022FF16C0468157812481C6
:102BE00035814217530744F4A081B1819D012F5FC5
:102BF0003F4F318320838C93268137812F5F3F4F56
:102C00003783268310C0EB01092F182F0084F1852C
:102C1000E02D0995892BE1F68E819F8101969F8396
:102C20008E83812F902FDF91CF911F910F91089567
:102C3000FB01238120FF12C026FD10C08F3F3FEF14
:102C4000930761F082832F7D20642383268137815F
:102C50002150310937832683992708958FEF9FEFFD
:102C60000895FA01AA27283051F1203181F1E89422
:102C70006F936E7F6E5F7F4F8F4F9F4FAF4FB1E06F
:102C80003ED0B4E03CD0670F781F891F9A1FA11D6A
:102C9000680F791F8A1F911DA11D6A0F711D811D6B
:102CA000911DA11D20D009F468943F912AE0269F30
:102CB00011243019305D3193DEF6CF010895462F8F
:102CC0004770405D4193B3E00FD0C9F7F6CF462F70
:102CD0004F70405D4A3318F0495D31FD40524193D9
:102CE00002D0A9F7EACFB4E0A69597958795779596
:102CF0006795BA95C9F700976105710508959B011D
:102D0000AC010A2E06945795479537952795BA95A5
:102D1000C9F7620F731F841F951FA01D08954F925E
:102D20005F926F927F929F92AF92BF92CF92DF920B
:102D3000EF92FF920F931F93CF93DF93CDB7DEB740
:102D400029970FB6F894DEBF0FBECDBF6A01122FD0
:102D5000B02E2BE3201720F0FF24F394F00E02C0D6
:102D6000BCE3FB2E0F2D27E0AE014F5F5F4F0E94AB
:102D7000A014AC018981982F9970913031F0E1FC59
:102D800006C0E0FE06C090E205C09DE203C09BE2E3
:102D900001C090E0EE2DE07183FF3CC0911102C0B4
:102DA00083E001C084E0811718F4212F281B01C0A3
:102DB00020E0E1110BC0F601822F30E2882319F0E8
:102DC00031938150FBCFC20ED11C20E0992329F012
:102DD000D6019C93F60131966F01C6010396E2FE7F
:102DE0000AC03EE4D6013C9341E411964C931197FE
:102DF00012963C9306C03EE6F601308341E64183DD
:102E00003283FC01322F40E2332309F442C0419364
:102E10003150FACF82FF44C0911102C083E001C05B
:102E200084E0811718F4212F281B01C020E0E11154
:102E30000BC0F601822F30E2882319F031938150C4
:102E4000FBCFC20ED11C20E0992329F0D6019C9320
:102E5000F60131966F01C6010396E2FE0BC039E41C
:102E6000D6013C933EE411963C93119736E41296BA
:102E70003C9307C039E6F60130833EE6318336E6FF
:102E80003283FC01322F40E2332319F04193315059
:102E9000FBCFFC01E20FF11D10828EEF9FEFB7C058
:102EA000F1E0911101C0F0E06F2F70E014161506EB
:102EB00024F49A012F5F3F4F02C021E030E0260F3B
:102EC000371FBB2029F06B2D70E06F5F7F4F02C072
:102ED00060E070E0260F371F612F70E0261737077C
:102EE0001CF4121B212F01C020E03E2D387159F433
:102EF000D601322F60E2332319F06D933150FBCFAE
:102F0000C20ED11C20E0FF2331F0D6019C93B60104
:102F10006F5F7F4F6B01E1110BC0F601922F30E321
:102F2000992319F031939150FBCFC20ED11C20E0B0
:102F30009F2D940F3A81782F7071A72E84FF03C0C4
:102F4000313309F49150191624F4993018F098E0AF
:102F500001C091E0E42F852F57FF02C0E0E080E040
:102F60006E2F782FE0E0F0E0AEE29A2E3A01691A77
:102F700071082A01461A570A0B2D10E01195019588
:102F800011096F3F8FEF780729F4D6019C92C60193
:102F900001966C014617570784F0661677066CF4A5
:102FA0007F01E40CF51CA1E0B0E0AC0FBD1FEA0E00
:102FB000FB1ED7011196BC9002C090E3B92E615060
:102FC00071093196C60101967C016017710724F0E2
:102FD000D601BC926C01D5CF6417750741F4363326
:102FE00020F4353321F4A11002C081E3B82EF6019C
:102FF000B082F701822F90E2882319F091938150DB
:10300000FBCFF701E20FF11D108280E090E02996DE
:103010000FB6F894DEBF0FBECDBFDF91CF911F91E9
:103020000F91FF90EF90DF90CF90BF90AF909F9067
:103030007F906F905F904F9008959927882708950B
:1030400011E0CEE0D1E004C0FE010E944A132196B7
:0A305000CF30D107C9F7F894FFCF85
:10305A0023663A302E303030613A30302E303070BC
:10306A003A30302E3030643A30302E3030783A30C0
:10307A00302E30302A0005000000E20A2000494DB7
:10308A005520636F6E6E656374696F6E204F6B0AAD
:10309A000044697374616E63696120696E6963696A
:1030AA00616C204D5050433A2000C3816E67756CA5
:1030BA006F20696E696369616C3A2000494D552039
:1030CA00636F6E6E656374696F6E206572726F727C
:0230DA000A00EA
:00000001FF
